:0800000021C0FECFFDCFFCCFB3
:10000800FBCFFACFF9CFF8CFF7CFF6CF1027E80319
:1000180064000A000100001000011000010007063A
:100028000504039F250D9949411F0109E1D10400E9
:10003800740026000C0078002A000000F894EE27CF
:10004800ECBBE5BF8DE0A2E0ED938A95E9F780E48B
:10005800A0E6ED938A95E9F7E6E3F0E0C8953196D6
:10006800802DC8953196902D0097B9F0C895319696
:10007800A02DC8953196B02DC8953196102CC895ED
:1000880031966E2F7F2FF02DE12DC89531960D9268
:100098000197D9F7E62FF72FE1CFEFE9EDBFC4E7D6
:1000A80000C000E010E020E0EFEFE7BB47D0002EF3
:1000B800012A29F410D1AAE011D1EAD00EC00024F7
:1000C800001601062CF4A02FB12F1196BB230AF0BD
:1000D80005C001D1ABE002D1E5D02E2F0F5F1F4F35
:1000E8000024001601061CF4F6D0AAE002C0F3D0E2
:1000F800ABE045D0AE2FBF2F28D0E2E0EA93A22F85
:10010800B0E0EAE0F0E038D1AE2FE8D0E3E0EA93DF
:10011800A22FBB27EAE0F0E034D1AE2FDFD0C7CF63
:10012800FFCF0A930A2F003011F0C09A01C0C0987F
:10013800C398C39A22C0C29AC2980895C498A3E0EB
:10014800D1D0F9DFC49AF7DF0895E1D01A2F2B2F09
:1001580000E0003140F4E12FE170AE2FE2DF269598
:1001680017950F5FF6CFE7DFD8D0B3C00A930A2FF1
:10017800A8E7A00FEC91FE2FE0E009910895C8D000
:100188000A2F1A81A4E7A10FEC91A1E0B0E0CDD02D
:10019800FF93EF93A02FEADFAF91BF91EA2BFB2BE0
:1001A800BDD097C02A97B1D04A2F20E030E0EC2F7D
:1001B800EB5FEA9390D0AAE081D096D0C198A2E1F3
:1001C80091D0C19A83E08A95F1F7B9988DE78A951D
:1001D800F1F7B19958C08CD0B19B55C089D020E0B7
:1001E80030E02530E0E03E0780F52297E0E0E88344
:1001F800E98300E010E00830E0E01E07C8F4B19B96
:10020800FECF80E68A95F1F7B19B0DC0E7E0F0E0FC
:10021800E01BF10BA1E0B0E088D0A881B981EA2BFE
:10022800FB2BE883F983B199FECF0F5F1F4FE3CF14
:10023800E22FAC2FA95FEE0FEA0FA881B981A08346
:10024800B18322962F5F3F4FCCCF4ED0EF81F885F8
:10025800AD81BE81EA0FFB1FA985BA85EA0FFB1F96
:10026800AB85BC85AE0FBF1FED85FE85EA17FB0782
:1002780051F4403019F4E985FA8507C0413019F482
:10028800ED81FE8102C0EFEFF0E045D02F96089592
:100298003FD0A0E032D019F4EFEFFFEF0CC0E02F11
:1002A800F12F09C035D0A1E028D019F4EFEFFFEF06
:1002B80002C0E02FF12F099119910895AA93A881FE
:1002C800AA2331F0FF27EA8169816193AA95E9F7AA
:1002D800EA8123960895E0E0EA93089550DFAE2F6F
:1002E800BF2F33CFB0E06AC0B99AC19AA4E6FACF5B
:1002F80080EC90E00197F1F7089554DF0E2F1F2F3F
:10030800EFEFF0E0E017F10708954A933A932A9344
:100318001A930A9308954C813B812A811981088197
:100328000895F195E195F0400895EE230E2EE8E04A
:100338001E2EEA2FFB2F51F0011420F0FE2FE0E0D3
:10034800011821F0EE0FFF1F0A94E1F70895002429
:10035800112490E1AA0FBB1F001C111C0E1A1F0AC2
:1003680018F40E0E1F1E01C0A1609A9599F7EA2F86
:10037800FB2FA02DB12D089513D0E9DF0EF4D1DFA6
:100388000895E894B7FF04C0B195A195B04068946A
:10039800F7FDC7DFDCDFEA2FFB2F0EF4C2DF08957D
:1003A800E894F7FF02C0BDDF6894B7FF06C0B195B7
:1003B800A195B04000F8039400FA0895109639F01A
:1003C800A89580E699E00197F1F71197C9F7089584
:00000001FF
