:1000000009C016C015C014C013C012C011C010C062
:100010000FC00EC011241FBECFE9CDBF20E0A0E667
:10002000B0E001C01D92A136B207E1F705D033C0A0
:10003000E7CFB898C09A0895FCDF2FEF8DEE92E0DD
:10004000215080409040E1F700C000001AD0882382
:10005000E9F30CD080FD02C0C39AEFCFC398EDCF77
:1000600080916000811101C08BEE089598E080E0DE
:10007000880FB099816029E22A95F1F79150C1F774
:100080000895CF93F3DFC82FEBDF91E0C81390E022
:0A009000892FCF910895F894FFCF57
:00000001FF
