:1000000009C016C015C014C013C012C011C010C062
:100010000FC00EC011241FBECFE9CDBF20E0A0E667
:10002000B0E001C01D92A136B207E1F705D032C0A1
:10003000E7CFB89AC09A0895FCDFD0E00DC08D2FAD
:1000400021D08FEB9DE50197F1F700C00000C15072
:10005000B1F7DF5FDF3F89F3C4E6F1CF8091600045
:10006000811101C08BEE089598E0882314F4C098A4
:1000700001C0C09A29E22A95F1F700C0880F91507B
:10008000A1F70895CF93C82FE9DFEEDF8C2FECDFC7
:08009000CF910895F894FFCF11
:00000001FF
