:0800000011C0FECFFDCFFCCFC3
:10000800FBCFFACFF9CFF8CFF7CFF6CF010000003A
:10001800000000000000000000000000F894EE2737
:10002800ECBBE5BF8DE0A2E0ED938A95E9F780E4AB
:10003800A0E6ED938A95E9F7EFE9EDBFC4E70AC0BA
:100048007ED00A2F1B2FE02FA1E0B0E085D00991C8
:1000580019910895609780E160E0E4E1F0E072D0E2
:1000680020E030E0EFEFE7BB00E010E00F3FEFEFFC
:100078001E0728F4202B312B0F5F1F4FF7CF43D0DB
:10008800E8B3EF93A1E052D0E095AF9151D000E0F2
:1000980010E00830E0E01E0790F4E02FAC2FEE0FE0
:1000A800AE0FED91FD91A8E3E1700E2EEC91EE7F7D
:1000B800E029EC9306D016D00F5F1F4FEACFE7CFA9
:1000C800FFCFE8B3EF93A3E031D0AF91EA2BE8BBC1
:1000D800A4E131D0EF93A3E029D0E095AF9128D0E7
:1000E800A4E121C0E8B3EF93A2E020D0AF91EA2BBE
:1000F800E8BBA3E020D0EF93A2E018D0E095AF9141
:1001080017D0A3E010C0E8B3EF93A4E00FD0E095B8
:10011800AF910ED0AAE00FD0EF93A4E007D0AF9133
:10012800EA2BE8BBAAE0B0E029D00895B0E088CF78
:10013800EA23E8BB0895B0E021D0E8B308951A9304
:100148000A930895AF93A62FAC0FC89531960D92D8
:100158008A95D9F7AF910895EE230E2EE8E01E2E6A
:10016800EA2FFB2F51F0011420F0FE2FE0E00118D8
:1001780021F0EE0FFF1F0A94E1F70895109639F069
:10018800A89580ED97E00197F1F71197C9F70895C1
:00000001FF
