:1000000009C00EC00DC00CC00BC00AC009C008C09A
:1000100007C006C011241FBECFE9CDBF05D034C034
:10002000EFCFB89AC09A0895FCDFC0E000E010E07E
:100030008C2F23D00F5F1F4F083E83E01807C1F7B6
:10004000CF5FCF3F99F7F1CF80FF02C0C0980895EE
:10005000C09A0895CF93DF93D82FC8E08D2F881FC3
:100060008827881FF1DF88E28A95F1F700C0DD0F4D
:10007000C150A1F7DF91CF910895CF93C82F8AEA9D
:0C008000E9DF8C2FCF91E6CFF894FFCF82
:00000001FF
