:1000000009C00EC00DC00CC00BC00AC009C008C09A
:1000100007C006C011241FBECFE9CDBF05D035C033
:10002000EFCFB89AC09A0895FCDFC0E0D4E68C2FD9
:1000300025D08FEB9DE50197F1F700C00000D1506E
:10004000B1F7CF5FCF3F91F7F0CF80FF02C0C098EC
:100050000895C09A0895CF93DF93D82FC8E08D2FCD
:10006000881F8827881FF1DF89E28A95F1F700C091
:10007000DD0FC150A1F7DF91CF910895CF93C82F25
:0E0080008AEAE9DF8C2FCF91E6CFF894FFCF0C
:00000001FF
