:1000000009C00EC00DC00CC00BC00AC009C008C09A
:1000100007C006C011241FBECFE9CDBF06D038C02F
:10002000EFCFBA98B89AC0980895FBDF15D088230F
:10003000E9F306D080FF02C0C09AF8CFC098F6CF8F
:1000400098E080E0880FB099816028E22A95F1F766
:1000500000C09150B9F7089580E090E06AEA70E03E
:1000600046B341709B01082E02C0359527950A942E
:10007000E2F7217042130AC028E22A95F1F700C086
:1000800001968830910561F781E0089580E0089538
:04009000F894FFCF12
:00000001FF
